S0200000344C32465F636F6E74726F6C5F313238415F7570646174652E737265638F
S113000045C0000060C000005EC000005CC000008D
S11300105AC0000058C0000056C0000054C0000080
S113002052C0000050C000004EC000004CC0000090
S113003059C0000048C0000046C0000044C0000091
S113004042C0000064C500003EC000003CC0000087
S11300503AC0000038C0000036C0000034C00000C0
S113006032C0000030C000002EC000002CC00000D0
S11300702AC0000028C0000026C0000024C00000E0
S113008022C0000020C000001EC0000011241FBEBA
S1130090CFEFD0E1DEBFCDBF11E0A0E0B1E0E8EEEC
S11300A0FDE000E00BBF02C007900D92A832B1073B
S11300B0D9F721E0A8E2B1E001C01D92A533B2074F
S11300C0E1F768D58FC69CCF8EB588608EBD88E277
S11300D09EE09BBD8ABD87B7806187BF8EB5856072
S11300E08EBD08951F920F920FB60F9211248F9315
S11300F081E080932E018F910F900FBE0F901F907F
S11301001895AC0190912E01992399F010922E012B
S113011020912C0130912D012F5F3F4F30932D0101
S113012020932C012417350720F010922D011092F2
S11301302C01089587B3806187BB8DB180648DB92C
S11301408DB180688DB90895CF93DF9385B38B7F8C
S113015085BB85B38D7F85BB85B38E7F85BBC5E6A7
S1130160D0E088818D7F888388818E7F888385B362
S11301708F7785BB88EC90E0C4DF88818B7F888390
S113018088EC90E0BEDF8BB38F778BBB88EC90E07C
S1130190B8DF8BB38F7B8BBB88EC90E0B2DFDF9151
S11301A0CF910895CF93DF9385B3846085BB85B3E6
S11301B08D7F85BB85B38E7F85BBC5E6D0E0888106
S11301C08D7F888388818E7F888385B38F7785BB75
S11301D088EC90E096DF88818B7F888388EC90E0C0
S11301E090DF8BB380688BBB88EC90E08ADF8BB3A5
S11301F08F7B8BBB88EC90E084DFDF91CF910895F7
S1130200CF93DF9385B3846085BB85B3826085BB60
S113021085B38E7F85BBC5E6D0E088818D7F8883DA
S113022088818E7F888385B38F7785BB88EC90E047
S113023068DF88818B7F888388EC90E062DF8BB3F2
S11302408F778BBB88EC90E05CDF8BB380648BBBD7
S113025088EC90E056DFDF91CF910895CF93DF9340
S113026085B3846085BB85B3826085BB85B38160BB
S113027085BBC5E6D0E088818D7F888388818E7FA9
S1130280888385B38F7785BB88EC90E03ADF8881DB
S11302908460888388EC90E034DF8BB38F778BBBEA
S11302A088EC90E02EDF8BB380648BBB88EC90E00D
S11302B028DFDF91CF910895CF93DF9385B38460D6
S11302C085BB85B3826085BB85B3816085BBC5E68C
S11302D0D0E088818260888388818E7F888385B31B
S11302E08F7785BB88EC90E00CDF88818B7F8883D7
S11302F088EC90E006DF8BB380688BBB88EC90E0E1
S113030000DF8BB380648BBB88EC90E0FADEDF9176
S1130310CF910895CF93DF9385B3846085BB85B374
S1130320826085BB85B3816085BBC5E6D0E08881EA
S11303308260888388818160888385B3806885BB77
S113034088EC90E0DEDE88818B7F888388EC90E007
S1130350D8DE8BB38F778BBB88EC90E0D2DE8BB387
S11303608F7B8BBB88EC90E0CCDEDF91CF9108953E
S113037082B38F7D82BB82B38F7E82BB82B3877F41
S113038082BB82B38B7F82BB82B38D7F82BB8BB3F4
S1130390877F8BBB88EC90E0B4DE8BB38B7F8BBB09
S11303A088EC90E0AEDE8BB38D7F8BBB88EC90E065
S11303B0A8DE8BB38E7F8BBB88EC90E0A2CE089531
S11303C082B3806282BB82B38F7E82BB82B3877F1B
S11303D082BB82B38B7F82BB82B38D7F82BB8BB3A4
S11303E0877F8BBB88EC90E08CDE8BB38B7F8BBBE1
S11303F088EC90E086DE8BB382608BBB88EC90E067
S113040080DE8BB38E7F8BBB88EC90E07ACE089530
S113041082B3806282BB82B3806182BB82B3877FF6
S113042082BB82B38B7F82BB82B38D7F82BB8BB353
S1130430877F8BBB88EC90E064DE8BB38B7F8BBBB8
S113044088EC90E05EDE8BB38D7F8BBB88EC90E014
S113045058DE8BB381608BBB88EC90E052CE08955C
S113046082B3806282BB82B3806182BB82B38860C4
S113047082BB82B38B7F82BB82B38D7F82BB8BB303
S1130480877F8BBB88EC90E03CDE8BB384608BBBB6
S113049088EC90E036DE8BB38D7F8BBB88EC90E0EC
S11304A030DE8BB381608BBB88EC90E02ACE08955C
S11304B082B3806282BB82B3806182BB82B3886074
S11304C082BB82B3846082BB82B38D7F82BB8BB3D9
S11304D0877F8BBB88EC90E014DE8BB38B7F8BBB68
S11304E088EC90E00EDE8BB382608BBB88EC90E0EE
S11304F008DE8BB381608BBB88EC90E002CE08955C
S113050082B3806282BB82B3806182BB82B3886023
S113051082BB82B3846082BB82B3826082BB8BB3B2
S113052088608BBB88EC90E0ECDD8BB38B7F8BBB5E
S113053088EC90E0E6DD8BB38D7F8BBB88EC90E09C
S1130540E0DD8BB38E7F8BBB88EC90E0DACD089531
S1130550CF93DF9380E090E030D4CFE2D1E0888382
S113056081E090E02AD4898382E090E026D48A83D3
S113057083E090E022D48B8384E090E01ED48C83CB
S113058085E090E01AD48D83DF91CF910895809116
S11305902F018F3F21F460E080E090E016D4809139
S11305A030018F3F21F460E081E090E00ED480912F
S11305B031018F3F21F460E082E090E006D4809125
S11305C032018F3F21F460E083E090E0FED380911C
S11305D033018F3F21F460E084E090E0F6D3809112
S11305E034018F3F21F460E085E090E0EEC308958C
S11305F080912F01882351F082B3805882BB95B338
S113060080E2892785BB82E390E07BDD8091300125
S1130610882359F095B388E0892785BB95B380E496
S1130620892785BB82E390E06CDD809131018823CA
S113063059F092B380E4892782BB9BB380E2892777
S11306408BBB82E390E05DDD80913201882351F021
S113065095B380E1982795BB9BB389278BBB82E335
S113066090E04FCD089580913301811104C06CDD79
S113067084E690E046DD80913301813021F4EEDDA3
S113068084E690E03EDD80913401811104C070DE87
S113069084E690E036DD80913401813021F4E0DE9F
S11306A084E690E02ECD08959093900089B988E176
S11306B08AB98EE080939500089506DD3BDD87E6D8
S11306C090E0F2DF789481B38E6F81BBE4E6F0E0D2
S11306D080818760808384B38FEF84BB9AB38ABBA5
S11306E008955D9BFECF8CB90895CF93DF93EC0101
S11306F060E071E059D3892B19F481E5F2DF04C27B
S113070063E071E0CE0150D3892BD9F483E5E9DFAE
S113071082B3805882BB95B380E2892785BB9091D0
S11307202F0181E0911180E090912F01891709F444
S1130730EBC1EFE2F1E08083608180E090E045D39B
S1130740E3C166E071E0CE012FD3892BE1F480E5AB
S1130750C8DF95B388E0892785BB95B380E48927F2
S113076085BB9091300181E0911180E0909130013E
S1130770891709F4C9C1EFE2F1E08183618181E065
S113078090E023D3C1C169E071E0CE010DD3892B80
S1130790E1F482E5A6DF92B380E4892782BB9BB3B0
S11307A080E289278BBB9091310181E0911180E037
S11307B090913101891709F4A7C1EFE2F1E0828336
S11307C0628182E090E001D39FC16CE071E0CE01D0
S11307D0EBD2892BD9F487E484DF95B380E19827A1
S11307E095BB9BB389278BBB9091320181E091111A
S11307F080E090913201891709F486C1EFE2F1E0BB
S11308008383638183E090E0E0D27EC16FE071E096
S1130810CE01CAD2892B09F041C0809133018530C1
S113082039F486E45EDF76DD85E08093330131C000
S113083080913301843039F485E453DF3DDD84E075
S11308408093330126C080913301833039F484E4EA
S113085048DF04DD83E0809333011BC080913301C2
S1130860823039F483E43DDFCBDC84E080933301D0
S113087010C080913301813039F481E432DF92DC9D
S113088085E08093330105C080913301811101C05B
S113089089DC61E084E090E098D236C162E171E0E5
S11308A0CE0182D2892B41F482E41BDF4DDC60E06F
S11308B084E090E08AD228C165E171E0CE0174D26F
S11308C0892B09F041C080913401853039F48AE4E0
S11308D008DF16DE85E08093340131C08091340155
S11308E0843039F489E4FDDEE3DD84E0809334016F
S11308F026C080913401833039F488E5F2DEB0DD1E
S113090083E0809334011BC080913401823039F438
S11309108AE5E7DE7DDD82E08093340110C08091BA
S11309203401813039F48BE4DCDE4ADD81E08093EC
S1130930340105C080913401811101C041DD61E0C1
S113094085E090E042D2E0C068E171E0CE012CD2B3
S1130950892B41F487E5C5DE0BDD60E085E090E09E
S113096034D2D2C06BE171E0CE011ED2892B09F0E2
S113097035C0AA9907C081E4B4DE14DC81E0809319
S1130980330127C0A99907C083E4ABDE39DC82E0D8
S1130990809333011EC0A89907C084E4A2DE5EDC04
S11309A083E08093330115C08091650081FD07C009
S11309B085E497DE81DC84E0809333010AC0809172
S11309C0650080FD06C086E48CDEA4DC85E08093AF
S11309D0330161E084E090E0F8D196C06EE171E00B
S11309E0CE01E2D1892B89F5959907C08BE479DE94
S11309F0E7DC81E08093340123C0949907C08AE541
S1130A0070DE06DD82E0809334011AC0939907C03A
S1130A1088E567DE25DD83E08093340111C0929977
S1130A2007C089E45EDE44DD84E08093340108C0BD
S1130A30919906C08AE455DE63DD85E08093340134
S1130A4061E085E090E0C1D15FC061E271E0CE0178
S1130A50ABD1892B61F58091650080FF07C085E4E7
S1130A6040DE2ADC84E0809333011CC08091650061
S1130A7081FF07C084E435DEF1DB83E0809333013A
S1130A8011C0A89B07C083E42CDEBADB82E080930C
S1130A90330108C0A99B06C081E423DE83DB81E027
S1130AA08093330161E084E090E08FD12DC064E253
S1130AB071E0CE0179D1892B39F5919B07C089E486
S1130AC010DEF6DC84E0809334011AC0929B07C0E8
S1130AD088E507DEC5DC83E08093340111C0939B75
S1130AE007C08AE5FEDD94DC82E08093340108C00F
S1130AF0949B06C08BE4F5DD63DC81E080933401D4
S1130B0061E085E090E061D1DF91CF9108951F927B
S1130B100F920FB60F9211240BB60F922F933F939F
S1130B204F935F936F937F938F939F93AF93BF93F1
S1130B30EF93FF939FB180912B01823088F4E82FCB
S1130B40F0E0E85DFE4F90838F5F80932B0182304D
S1130B5039F410922A0188E291E0C7DD10922B014A
S1130B608EB180688EB9FF91EF91BF91AF919F9143
S1130B708F917F916F915F914F913F912F910F9042
S1130B800BBE0F900FBE0F901F9018955F9BFECF6A
S1130B908CB1089592DD84E690E0B3DAD9DC84E682
S1130BA090E0AFDA25DD84E690E0ABDA5CDD84E644
S1130BB090E0A7DAECDC88EC90E0A3DA5F9BFBCF53
S1130BC0CCB1CC34F1F4E2DFC82F813351F482B3D9
S1130BD0806882BB85B3806285BB81E080932F01EE
S1130BE00AC0803341F482B38F7782BB85B38F7D93
S1130BF085BB10922F0160912F0180E090E0E5D039
S1130C00AFC0CD34F1F4C2DFC82F813351F485B3C2
S1130C10886085BB85B3806485BB81E080933001A7
S1130C200AC0803341F485B3877F85BB85B38F7B4E
S1130C3085BB109230016091300181E090E0C5D015
S1130C408FC0CE34F1F4A2DFC82F813351F482B3C4
S1130C50806482BB8BB380628BBB81E08093310163
S1130C600AC0803341F482B38F7B82BB8BB38F7D08
S1130C708BBB109231016091310182E090E0A5D0EC
S1130C806FC0C035F1F482DFC82F813351F485B3CE
S1130C90806185BB8BB380618BBB81E08093320123
S1130CA00AC0803341F485B38F7E85BB8BB38F7EBE
S1130CB08BBB109232016091320183E090E085D0C9
S1130CC04FC0C634A1F462DFC82F813329F46ADA35
S1130CD081E08093330105C0803319F435DA109232
S1130CE033016091330184E090E06FD039C0C535A1
S1130CF011F54CDFC82F823329F482DA82E0809325
S1130D00330114C0833329F4A9DA83E080933301D7
S1130D100DC0843329F4D0DA84E08093330106C013
S1130D20853321F4F7DA85E08093330161E084E0D0
S1130D3090E04BD015C0C73499F428DFC82F813315
S1130D4029F43EDB81E08093340105C0803319F43B
S1130D500FDB109234016091340185E090E035D0CE
S1130D60C83409F028CF12DF823329F451DB82E042
S1130D708093340114C0833329F472DB83E08093BD
S1130D8034010DC0843329F493DB84E0809334016F
S1130D9006C0853321F4B4DB85E08093340161E03F
S1130DA085E090E012D007CFFB01DC018D9101902A
S1130DB080190110D9F3990B0895E199FECF9FBBD7
S1130DC08EBBE09A99278DB30895262FE199FECF23
S1130DD09FBB8EBB2DBB0FB6F894E29AE19A0FBE6F
S10B0DE001960895F894FFCF79
S1130DE85031004C31004C32004C33004C34004636
S1130DF83000463100463200463300553100553242
S10B0E080044310044320000F3
S9030000FC
